S023000050726F796563746F315F536C6176655F556C747261736F6E69636F2E737265632F
S11300000C9434000C9446000C9446000C94460066
S11300100C9446000C9446000C9446000C94460044
S11300200C9446000C9446000C9446000C94460034
S11300300C9446000C9446000C9446000C94460024
S11300400C9446000C9446000C9446000C94460014
S11300500C9446000C9446000C9446000C94460004
S11300600C94A4000C94460011241FBECFEFD8E0DA
S1130070DEBFCDBF21E0A0E0B1E001C01D92A530FC
S1130080B207E1F70E9454000C9491020C94000012
S113009097B19F7C97B990E0880F991F8093BA001D
S11300A085E48093BC000895F8948AB188608AB985
S11300B08AB18B7F8AB98BB1837F8BB91092800010
S11300C0E1E8F0E080818260808380E20E94480061
S11300D078948BB188608BB985E38A95F1F7000039
S11300E08BB1877F8BB94A9BFECF1092850010920B
S11300F084004A99FECF609184007091850080E06D
S113010090E00E94960120E030E040E05FE30E942E
S113011024020E94670170930101609300016091C1
S113012000017091010180E090E00E9496012DECA5
S11301303CEC48E652E40E94F5000E94670170938B
S1130140030160930201C5CF1F920F920FB60F9265
S113015011248F939F93EF93FF938091B9008C7F29
S11301608039C9F038F4803781F08038A1F08036C6
S113017071F50BC0883BC9F018F4883AB1F027C078
S1130180803CF9F0883CE9F022C0ECEBF0E080819F
S11301908068808321C08091BB0080930401ECEBD4
S11301A0F0E080818068808317C080910201909183
S11301B003018093BB00ECEBF0E08081856C8083CD
S11301C00BC0ECEBF0E08081846C808305C0ECEB29
S11301D0F0E0808180698083FF91EF919F918F91FE
S11301E00F900FBE0F901F9018950E9409010C9458
S11301F0EA010E94E30158F00E94DC0140F029F476
S11302005F3F29F00C94D30151110C941E020C94FD
S1130210D9010E94FB0168F39923B1F3552391F3AB
S1130220951B550BBB27AA2762177307840738F061
S11302309F5F5F4F220F331F441FAA1FA9F335D0BE
S11302400E2E3AF0E0E832D091505040E695001C72
S1130250CAF72BD0FE2F29D0660F771F881FBB1F2C
S1130260261737074807AB07B0E809F0BB0B802D0A
S1130270BF01FF2793585F4F3AF09E3F510578F036
S11302800C94D3010C941E025F3FE4F3983ED4F324
S1130290869577956795B795F7959F5FC9F7880F0A
S11302A0911D9695879597F90895E1E0660F771F5C
S11302B0881FBB1F621773078407BA0720F0621BED
S11302C0730B840BBA0BEE1F88F7E09508950E9418
S11302D0030288F09F5798F0B92F9927B751B0F0CF
S11302E0E1F0660F771F881F991F1AF0BA95C9F7B6
S11302F014C0B13091F00E941D02B1E008950C9435
S11303001D02672F782F8827B85F39F0B93FCCF3E7
S1130310869577956795B395D9F73EF49095809532
S1130320709561957F4F8F4F9F4F0895E89409C052
S113033097FB3EF490958095709561957F4F8F4F14
S11303409F4F9923A9F0F92F96E9BB279395F6952A
S1130350879577956795B795F111F8CFFAF4BB0FA8
S113036011F460FF1BC06F5F7F4F8F4F9F4F16C00C
S1130370882311F096E911C0772321F09EE8872F96
S1130380762F05C0662371F096E8862F70E060E052
S11303902AF09A95660F771F881FDAF7880F9695CB
S11303A0879597F9089597F99F6780E870E060E072
S11303B008959FEF80EC089500240A9416161706FA
S11303C018060906089500240A9412161306140642
S11303D005060895092E0394000C11F4882352F0A5
S11303E0BB0F40F4BF2B11F460FF04C06F5F7F4F5D
S11303F08F4F9F4F089557FD9058440F551F59F044
S11304005F3F71F04795880F97FB991F61F09F3FFD
S113041079F087950895121613061406551FF2CF26
S11304204695F1DF08C0161617061806991FF1CF76
S113043086957105610508940895E894BB2766279D
S11304407727CB0197F908950E9437020C94EA01AB
S11304500E94DC0138F00E94E30120F0952311F0A2
S11304600C94D3010C94D90111240C941E020E9403
S1130470FB0170F3959FC1F3950F50E0551F629FE8
S1130480F001729FBB27F00DB11D639FAA27F00DE9
S1130490B11DAA1F649F6627B00DA11D661F829F10
S11304A02227B00DA11D621F739FB00DA11D621FF5
S11304B0839FA00D611D221F749F3327A00D611D12
S11304C0231F849F600D211D822F762F6A2F1124F4
S11304D09F5750409AF0F1F088234AF0EE0FFF1F27
S11304E0BB1F661F771F881F91505040A9F79E3F7E
S11304F0510580F00C94D3010C941E025F3FE4F389
S1130500983ED4F3869577956795B795F795E795D3
S11305109F5FC1F7FE2B880F911D9695879597F9DC
S10905200895F894FFCFDA
S9030000FC
