:100000000C9434000C9451000C9451000C94530146
:100010000C94F3000C9451000C9451000C9451007A
:100020000C9451000C9451000C9451000C9451000C
:100030000C9451000C9451000C9451000C945100FC
:100040000C9451000C9451000C9451000C945100EC
:100050000C9451000C9451000C9451000C945100DC
:100060000C9451000C94510011241FBECFEFD8E026
:10007000DEBFCDBF11E0A0E0B1E0E2E5F3E002C0F9
:1000800005900D92A031B107D9F721E0A0E1B1E0D0
:1000900001C01D92AA31B207E1F70E94CB000C9477
:1000A000A7010C94000085E090E00FC0FC01E05037
:1000B000FF4F20812BB92FEF33ED40E3215030402B
:1000C0004040E1F700C00000019799237CF71BB87E
:1000D00081E090E09093110180931001109217013C
:1000E000109216011092150110921401109219012C
:1000F0001092180185B1817E85B988B1807F88B959
:1001000008958091180190911901892B39F08FE39E
:100110009CE90197F1F700C000001BB8809118011D
:10012000909119018130910519F0029741F00895DD
:1001300086E08BB9109213011092120108958BE59D
:100140008BB910921301109212010895F8948EED5C
:1001500084B981E285B98FEF8AB91BB88FE087B97E
:1001600080EF88B9ECE6F0E0808180678083E8E684
:10017000F0E0808182608083808181608083ABE653
:10018000B0E08C9181628C93808181608083109239
:10019000C100789408950E94A6000E948100FDCFBE
:1001A000FB01642F70E02FE030E002C0220F331F0C
:1001B0004A95E2F790812095292320839FEF980F9D
:1001C000943080F4408190E00197860F971F21E0E2
:1001D00030E0B90102C0660F771F8A95E2F7CB01C4
:1001E000842B808308951F920F920FB60F921124D3
:1001F0002F933F934F935F936F937F938F939F932F
:10020000AF93BF93EF93FF93349910C08091120185
:10021000909113010196909313018093120102971C
:100220001CF00E94530002C00E94530035992AC05E
:100230008091100190911101892B21F18091180179
:10024000909119010297F1F0809116019091170198
:1002500001969093170180931601059764F084E04E
:1002600090E0909317018093160181E090E09093C5
:1002700019018093180141E065E270E08091160158
:100280000E94D000FF91EF91BF91AF919F918F910C
:100290007F916F915F914F913F912F910F900FBE82
:1002A0000F901F9018951F920F920FB60F92112466
:1002B0002F933F934F935F936F937F938F939F936E
:1002C000AF93BF93EF93FF93189930C080911001C3
:1002D00090911101892B51F18FE19EE40197F1F783
:1002E00000C0000080911801909119010197F1F070
:1002F00080911401909115010196909315018093BE
:100300001401059764F084E090E0909315018093C8
:10031000140182E090E0909319018093180140E06D
:1003200068E270E0809114010E94D000FF91EF918B
:10033000BF91AF919F918F917F916F915F914F91FD
:100340003F912F910F900FBE0F901F901895F8942A
:02035000FFCFDD
:100352003F065B4F666D7D077F6F777C395E7971F3
:00000001FF
