S0120000536C6176655F5065736F2E7372656321
S11300000C9434000C9451000C9451000C94510045
S11300100C9451000C9451000C9451000C94510018
S11300200C9451000C9451000C9451000C94510008
S11300300C9451000C9451000C9451000C945100F8
S11300400C9451000C9451000C9451000C945100E8
S11300500C9451000C9451000C9451000C945100D8
S11300600C9433020C94510011241FBECFEFD8E03E
S1130070DEBFCDBF11E0A0E0B1E0E6EAFFE002C0E0
S113008005900D92A034B107D9F721E0A0E4B1E0C6
S113009001C01D92A134B207E1F70E9474020C94CE
S11300A0D1070C94000097B19F7C97B9880F8160A9
S11300B08093BA0085E48093BC0008958AB18F7E52
S11300C08AB98AB180628AB98BB18F7D8BB9089560
S11300D04C99FECF20E030E040E050E0BA0112C07D
S11300E08BB180628BB9440F551F661F771F8BB18C
S11300F08F7D8BB94C9B04C04F5F5F4F6F4F7F4F19
S11301002F5F3F4F283131055CF38BB180628BB98F
S1130110CB01BA0180582BB12F7D2BB90895CF9212
S1130120DF92EF92FF920F931F93CF93DF938C0193
S1130130C0E0D0E0C12CD12C760110C00E94680030
S1130140C60ED71EE81EF91E2FEF81EE94E0215053
S113015080409040E1F700C000002196C017D1070D
S11301606CF39801110F440B550BC701B6010E94A3
S1130170C80420930001309301014093020150937D
S11301800301DF91CF911F910F91FF90EF90DF90CA
S1130190CF900895CF92DF92EF92FF920F931F9327
S11301A0CF93DF938C01C0E0D0E0C12CD12C760139
S11301B010C00E946800C60ED71EE81EF91E2FEF5D
S11301C081EE94E0215080409040E1F700C00000AF
S11301D02196C017D1076CF39801110F440B550BEE
S11301E0C701B6010E94C8048091000190910101E9
S11301F0A0910201B091030179018A01E81AF90A78
S11302000A0B1B0BC801B7010E948403DF91CF9135
S11302101F910F91FF90EF90DF90CF90089510926F
S1130220C50087E68093C40088E08093C10086E01F
S11302308093C20008959091C00095FFFCCF8093F5
S1130240C6000895CF93DF93EC0103C021960E946A
S11302501B0188818111FACFDF91CF9108950E940B
S113026022018DE00E941B018AE00E941B01089577
S11302708F929F92AF92BF92CF92DF92EF92FF92B2
S11302800F931F93CF93DF93CDB7DEB72A970FB6A3
S1130290F894DEBF0FBECDBF4C015B0100E010E05F
S11302A0C12CD12C760111C00E946800C60ED71E45
S11302B0E81EF91E2FEF81EE94E02150804090401B
S11302C0E1F700C000000F5F1F4F0A151B0564F320
S11302D09501BB0C440B550BC701B6010E94C80421
S11302E0092C000CAA08BB08DA01C901881999096C
S11302F0AA09BB098093000190930101A093020114
S1130300B093030184E091E00E942F018AE191E01F
S11303100E942201809103018F93809102018F93A7
S1130320809101018F93809100018F9389E291E084
S11303309F938F938E010F5F1F4F1F930F930E9404
S1130340E704C8010E942F010FB6F894DEBF0FBE68
S1130350CDBF2A960FB6F894DEBF0FBECDBFDF9196
S1130360CF911F910F91FF90EF90DF90CF90BF90AE
S1130370AF909F908F9008958F929F92AF92BF926B
S1130380CF92DF92EF92FF92CF93DF934B015C0108
S1130390C42FD52F0E944C036B017C01072E000C47
S11303A0880B990B0E9484039B01AC01C501B40125
S11303B00E94DA0220E030E048EC52E40E94390462
S11303C00E944C039B01772324F422273327261B06
S11303D0370B3F932F93DF92CF928DE291E09F935F
S11303E08F93DF93CF930E94E7048DB79EB708964F
S11303F00FB6F8949EBF0FBE8DBFDF91CF91FF90D3
S1130400EF90DF90CF90BF90AF909F908F90089522
S1130410E0E8F0E0808182688083E1E8F0E08081B8
S11304208A6180838FE39CE99093870080938600A0
S113043084B1826084B90895992314F480E090E033
S1130440853B910514F084EB90E04BE0489F9001CC
S1130450499F300D1124C90188519C4F9093890004
S11304608093880008951F920F920FB60F92112463
S11304708F93EF93FF938091B9008C7F883A99F022
S113048028F4803651F0803741F021C0803CC9F017
S1130490883CB9F0883BD9F406C0ECEBF0E08081ED
S11304A0806C808319C083B18170809340018091F6
S11304B040018093BB00ECEBF0E08081856C80838D
S11304C00BC0ECEBF0E08081846C808305C0ECEB26
S11304D0F0E08081846D8083FF91EF918F910F9084
S11304E00FBE0F901F901895CF93DF93CDB7DEB753
S11304F02A970FB6F894DEBF0FBECDBF0E945E00F0
S11305000E940F010E94080284B1816084B988E0CE
S11305100E945300789484E190E00E948F0064E18B
S113052070E08EE091E00E9438018AE090E00E9441
S1130530CA006B017C0120E030E048EC52E40E94E8
S11305404703882324F485B1816085B903C085B14C
S11305508E7F85B920E030E048EC52E4C701B60153
S11305600E94340418162CF484EB90E00E941C02C0
S113057004C080E090E00E941C0285E391E00E94A8
S11305802201AE014F5F5F4FC701B6010E94BC015B
S1130590CE0101960E9422018CE391E00E942F017A
S11305A02FEF83ED90E3215080409040E1F700C0AD
S11305B00000BBCF5058BB27AA270E94F2020C941C
S11305C0FA030E94EC0338F00E94F30320F039F49C
S11305D09F3F19F426F40C94E9030EF4E095E7FB2D
S11305E00C94E303E92F0E940B0458F3BA17620733
S11305F073078407950720F079F4A6F50C942D046D
S11306000EF4E0950B2EBA2FA02D0B01B901900129
S11306100C01CA01A0011124FF27591B99F0593F6D
S113062050F4503E68F11A16F040A22F232F342FB5
S11306304427585FF3CF469537952795A795F04003
S11306405395C9F77EF41F16BA0B620B730B840B18
S1130650BAF09150A1F0FF0FBB1F661F771F881FD0
S1130660C2F70EC0BA0F621F731F841F48F4879528
S113067077956795B795F7959E3F08F0B0CF93951A
S1130680880F08F09927EE0F9795879508950E9493
S1130690BF0308F481E008950E9453036894B111E4
S11306A00C942E0408950E94130488F09F5798F028
S11306B0B92F9927B751B0F0E1F0660F771F881F63
S11306C0991F1AF0BA95C9F714C0B13091F00E947D
S11306D02D04B1E008950C942D04672F782F8827FA
S11306E0B85F39F0B93FCCF3869577956795B395A4
S11306F0D9F73EF490958095709561957F4F8F4F13
S11307009F4F0895E89409C097FB3EF49095809517
S1130710709561957F4F8F4F9F4F9923A9F0F92FC3
S113072096E9BB279395F695879577956795B79541
S1130730F111F8CFFAF4BB0F11F460FF1BC06F5F27
S11307407F4F8F4F9F4F16C0882311F096E911C039
S1130750772321F09EE8872F762F05C0662371F05A
S113076096E8862F70E060E02AF09A95660F771F6E
S1130770881FDAF7880F9695879597F90895990F4A
S11307800008550FAA0BE0E8FEEF16161706E80757
S1130790F907C0F012161306E407F50798F0621B78
S11307A0730B840B950B39F40A2661F0232B242B4D
S11307B0252B21F408950A2609F4A140A6958FEF6C
S11307C0811D811D089597F99F6780E870E060E0BE
S11307D008959FEF80EC089500240A9416161706D6
S11307E018060906089500240A941216130614061E
S11307F005060895092E0394000C11F4882352F081
S1130800BB0F40F4BF2B11F460FF04C06F5F7F4F38
S11308108F4F9F4F089557FD9058440F551F59F01F
S11308205F3F71F04795880F97FB991F61F09F3FD9
S113083079F087950895121613061406551FF2CF02
S11308404695F1DF08C0161617061806991FF1CF52
S113085086957105610508940895E894BB27662779
S11308607727CB0197F908950E94BF0308F48FEF0F
S113087008950E944C040C94FA030E94EC0338F08F
S11308800E94F30320F0952311F00C94E3030C94DD
S1130890E90311240C942E040E940B0470F3959F19
S11308A0C1F3950F50E0551F629FF001729FBB2763
S11308B0F00DB11D639FAA27F00DB11DAA1F649FFF
S11308C06627B00DA11D661F829F2227B00DA11DB2
S11308D0621F739FB00DA11D621F839FA00D611D38
S11308E0221F749F3327A00D611D231F849F600D59
S11308F0211D822F762F6A2F11249F5750409AF082
S1130900F1F088234AF0EE0FFF1FBB1F661F771F0D
S1130910881F91505040A9F79E3F510580F00C94D8
S1130920E3030C942E045F3FE4F3983ED4F38695DE
S113093077956795B795F795E7959F5FC1F7FE2B78
S1130940880F911D9695879597F90895A1E21A2E1F
S1130950AA1BBB1BFD010DC0AA1FBB1FEE1FFF1F5F
S1130960A217B307E407F50720F0A21BB30BE40BAF
S1130970F50B661F771F881F991F1A9469F76095F6
S11309807095809590959B01AC01BD01CF010895B0
S1130990052E97FB1EF400940E94DF0457FD07D038
S11309A00E94A60407FC03D04EF40C94DF04509577
S11309B04095309521953F4F4F4F5F4F0895909547
S11309C08095709561957F4F8F4F9F4F0895AEE04E
S11309D0B0E0EDEEF4E00C94A8070D891E8986E0E2
S11309E08C831A8309838FEF9FE79E838D83AE01E7
S11309F0475E5F4F6F89788DCE0101960E9409058D
S1130A00EF81F885E00FF11F10822E96E4E00C943C
S1130A10C407ABE0B0E0EFE0F5E00C949A076C019A
S1130A207B018A01FC0117821682838181FFCCC17C
S1130A30CE0101963C01F6019381F70193FD859166
S1130A4093FF81917F01882309F4BAC1853239F477
S1130A5093FD859193FF81917F01853229F4B6013D
S1130A6090E00E940007E7CF912C212C312CFFE16C
S1130A70F315D8F08B3279F038F4803279F0833280
S1130A80A1F4232D20611DC08D3261F0803369F4FF
S1130A90232D216016C0832D8260382EE32DE4605F
S1130AA03E2E2AC0F32DF8601DC037FC2DC020ED6A
S1130AB0280F2A3040F08E32B9F436FC81C1232D40
S1130AC02064322E19C036FE06C08AE0989E200D9E
S1130AD01124922E11C0EAE02E9E200D1124222E04
S1130AE0F32DF0623F2E08C08C3621F4832D8068EC
S1130AF0382E02C0883641F4F70193FD859193FFA7
S1130B0081917F018111B3CF982F9F7D95549330AC
S1130B1028F40C5F1F4F9FE399830DC0833631F097
S1130B20833771F0833509F059C021C0F801808101
S1130B3089830E5F1F4F88248394912C530113C023
S1130B402801F2E04F0E511CF801A080B18036FE5E
S1130B5003C0692D70E002C06FEF7FEFC5010E94F2
S1130B60F5064C018201F32DFF773F2E16C02801B4
S1130B7022E0420E511CF801A080B18036FE03C071
S1130B80692D70E002C06FEF7FEFC5010E94EA0695
S1130B904C01F32DF0683F2E820133FC1BC0822DE3
S1130BA090E088169906B0F4B60180E290E00E94C5
S1130BB000072A94F4CFF50137FC859137FE819123
S1130BC05F01B60190E00E94000721102A9421E001
S1130BD0821A91088114910471F7E8C0843611F0E7
S1130BE0893641F5F80137FE07C060817181828141
S1130BF093810C5F1F4F08C060817181072E000C28
S1130C00880B990B0E5F1F4FF32DFF763F2E97FF36
S1130C1009C090958095709561957F4F8F4F9F4F38
S1130C20F0683F2E2AE030E0A3010E943C07882EA2
S1130C30861845C0853731F4232D2F7EB22E2AE045
S1130C4030E025C0932D997FB92E8F36C1F018F46A
S1130C50883579F0B5C0803719F0883721F0B0C0F5
S1130C60E92FE061BE2EB4FE0DC0FB2DF460BF2E53
S1130C7009C034FE0AC0292F2660B22E06C028E01F
S1130C8030E005C020E130E002C020E132E0F801AC
S1130C90B7FE07C060817181828193810C5F1F4F11
S1130CA006C06081718180E090E00E5F1F4FA30158
S1130CB00E943C07882E8618FB2DFF773F2E36FEB8
S1130CC00DC0232D2E7FA22E891458F434FE0BC0A0
S1130CD032FC09C0832D8E7EA82E05C0B82CA32C0F
S1130CE003C0B82C01C0B92CA4FE0FC0FE01E80D4E
S1130CF0F11D8081803321F49A2D997EA92E09C09B
S1130D00A2FE06C0B394B39404C08A2D867809F079
S1130D10B394A3FC11C0A0FE06C0B21488F4280C3E
S1130D20922C9B180EC0B21460F4B60180E290E0DD
S1130D300E940007B394F7CFB21418F42B1802C022
S1130D40982C212CA4FE10C0B60180E390E00E94F0
S1130D500007A2FE17C0A1FC03C088E790E002C010
S1130D6088E590E0B6010CC08A2D867859F0A1FE82
S1130D7002C08BE201C080E2A7FC8DE2B60190E0E4
S1130D800E940007891438F4B60180E390E00E94C1
S1130D9000079A94F7CF8A94F301E80DF11D80813E
S1130DA0B60190E00E9400078110F5CF222009F4DB
S1130DB042CEB60180E290E00E9400072A94F6CF6A
S1130DC0F6018681978102C08FEF9FEF2B96E2E1B7
S1130DD00C94B607FC010590615070400110D8F7DF
S1130DE0809590958E0F9F1F0895FC01615070406F
S1130DF001900110D8F7809590958E0F9F1F08954C
S1130E000F931F93CF93DF93FB01238121FD03C035
S1130E108FEF9FEF2CC022FF16C04681578124819B
S1130E2035814217530744F4A081B1819D012F5F9E
S1130E303F4F318320838C93268137812F5F3F4F2F
S1130E403783268314C08B01EC01FB010084F185F8
S1130E50E02D0995892BE1F6D80116968D919C9188
S1130E601797019617969C938E931697CE01DF9150
S1130E70CF911F910F910895FA01AA27283051F1BB
S1130E80203181F1E8946F936E7F6E5F7F4F8F4FB7
S1130E909F4FAF4FB1E03ED0B4E03CD0670F781F16
S1130EA0891F9A1FA11D680F791F8A1F911DA11DFB
S1130EB06A0F711D811D911DA11D20D009F4689434
S1130EC03F912AE0269F11243019305D3193DEF6DC
S1130ED0CF010895462F4770405D4193B3E00FD092
S1130EE0C9F7F6CF462F4F70405D4A3318F0495D7D
S1130EF031FD4052419302D0A9F7EACFB4E0A69560
S1130F009795879577956795BA95C9F70097610581
S1130F10710508959B01AC010A2E069457954795D7
S1130F2037952795BA95C9F7620F731F841F951FCC
S1130F30A01D08952F923F924F925F926F927F92DD
S1130F408F929F92AF92BF92CF92DF92EF92FF92D5
S1130F500F931F93CF93DF93CDB7DEB7CA1BDB0B81
S1130F600FB6F894DEBF0FBECDBF09942A88398826
S1130F7048885F846E847D848C849B84AA84B9842D
S1130F80C884DF80EE80FD800C811B81AA81B98139
S1130F90CE0FD11D0FB6F894DEBF0FBECDBFED014D
S1090FA00895F894FFCF50
S1130FA60100000043616C696272616369F36E203B
S1130FB6636F6D706C65746121004E756576612092
S1130FC6657363616C613A2000256C640025642EA8
S1130FD625303264005065736F3A200020670000A4
S9030000FC
