:100000000C9434000C9451000C9451000C94510049
:100010000C9451000C9451000C9451000C9451001C
:100020000C9451000C9451000C9451000C9451000C
:100030000C9451000C9451000C9451000C945100FC
:100040000C9451000C9451000C9429030C94510011
:100050000C9451000C94F4020C9451000C94510037
:100060000C9451000C94510011241FBECFEFD8E026
:10007000DEBFCDBF11E0A0E0B1E0E6E2FBE002C0F0
:1000800005900D92A232B107D9F721E0A2E2B1E0CA
:1000900001C01D92A833B207E1F70E949B020C94A5
:1000A00091050C940000ECE7F0E01082AEE7B0E0C0
:1000B0008C9181608C938C9182608C938081806222
:1000C000808380818064808380818F778083EAE76A
:1000D000F0E0808188608083808187608083808178
:1000E00080688083089580FF04C095B1986095B9B9
:1000F00003C095B1977F95B981FF04C095B1946015
:1001000095B903C095B19B7F95B982FF04C09BB19F
:1001100094609BB903C09BB19B7F9BB983FF04C0D4
:100120009BB198609BB903C09BB1977F9BB984FF3B
:1001300004C09BB190619BB903C09BB19F7E9BB9EA
:1001400085FF04C09BB190629BB903C09BB19F7DAA
:100150009BB986FF04C09BB190649BB903C09BB15F
:100160009F7B9BB9882324F48BB180688BB9089559
:100170008BB18F778BB9089595B19E7F95B90E9409
:10018000730085B1826085B98FE99FE00197F1F72F
:1001900000C0000085B18D7F85B98FE99FE0019790
:1001A000F1F700C00000089585B18E7F85B985B153
:1001B0008D7F85B92FEF89EF90E0215080409040EE
:1001C000E1F700C0000080E30E94BC008FE19EE4E4
:1001D0000197F1F700C0000080E30E94BC008FE1AE
:1001E0009EE40197F1F700C0000080E30E94BC008C
:1001F0008FE39CE90197F1F700C0000088E30E94BB
:10020000BC008CE00E94BC0081E00E94BC0086E043
:100210000E94BC00089581E00E94BC0008958111F5
:1002200005C080E8860F0E94BC000895813021F44B
:1002300080EC860F0E94BC00089595B1916095B93D
:100240000E94730085B1826085B98FE99FE00197B4
:10025000F1F700C0000085B18D7F85B98FE99FE07F
:100260000197F1F700C0000008950F931F93CF93FB
:10027000DF938C01C0E0D0E003C00E941D012196F5
:10028000F801EC0FFD1F80818111F7CFDF91CF9135
:100290001F910F910895F8948FEF8AB984B917B818
:1002A0001092C50087E68093C40088E98093C1005E
:1002B00086E08093C2000E94D4002FEF80E792E096
:1002C000215080409040E1F700C000000E940B01E7
:1002D0000E945300EAE7F0E0808180648083789494
:1002E00008958F929F92AF92BF92CF92DF92EF923A
:1002F000FF920F931F93CF93DF93EC0170E080E0A8
:1003000090E00E94610420E030E040EA50E40E9466
:10031000ED0420E030E04FE753E40E94BE034B01C0
:100320005C010E9430046B017C018B0180E090E055
:100330000E945F049B01AC01C501B4010E945103FE
:1003400020E030E048EC52E40E94ED040E943004CA
:100350004B015C010A30110540F580E38C0D888368
:100360008EE289839401ADECBCEC0E946E05AC0179
:1003700056954795569547955695479580E3840F32
:100380008A83CA01880F991F440F551F440F551FB8
:10039000440F551F480F591FC401841B950B805DE6
:1003A0008B8386E58C831D8241C09601ADECBCEC4D
:1003B0000E946E05AC015695479556954795569502
:1003C000479580E3840F8883CA01880F991F440FE3
:1003D000551F440F551F440F551F480F591FC60185
:1003E000841B950B805D89838EE28A8394010E9431
:1003F0006E05AC0156954795569547955695479588
:1004000080E3840F8B83CA01880F991F440F551F07
:10041000440F551F440F551F480F591FC401841B1B
:10042000950B805D8C8386E58D831E82DF91CF9155
:100430001F910F91FF90EF90DF90CF90BF90AF9002
:100440009F908F900895CF93DF93FC019B01CB0188
:1004500064E670E00E945A05605D6083CAE0D0E007
:10046000C901BE010E945A05282FCB01BE010E947E
:100470005A05805D8183205D22831382DF91CF91B5
:1004800008959091C00095FFFCCF8093C600089519
:10049000CF93DF93EC0103C021960E944102888133
:1004A0008111FACFDF91CF9108950E940B0161E095
:1004B00080E00E940F0184E091E00E94350167E036
:1004C00080E00E940F0188E091E00E9435016DE01C
:1004D00080E00E940F018CE091E00E943501609164
:1004E000270188E291E00E9471016091260180E37A
:1004F00091E00E9471016091240170E080E091E040
:100500000E94230261E081E00E940F0188E291E0F5
:100510000E94350167E081E00E940F0180E391E0D5
:100520000E9435016DE081E00E940F0180E091E0C2
:100530000E94350108950E944B011FEFDFEFCFEFBE
:1005400080912701C8130CC080912601D81308C0E0
:1005500080912401181304C080912301882361F045
:100560000E945502C0912701D091260110912401CB
:1005700010922201109223016091270188E291E0FC
:100580000E9471016091260180E391E00E94710157
:100590006091240170E080E091E00E94230280E1FC
:1005A00091E00E94480288E291E00E94480285E1C1
:1005B00091E00E94480280E391E00E9448028BE1B2
:1005C00091E00E94480280E091E00E9448028AE0A7
:1005D0000E9441022FEF81EE94E021508040904034
:1005E000E1F700C00000ACCF1F920F920FB60F9240
:1005F00011248F93EF93FF938091250181110DC0FA
:10060000ECE7F0E08081887F80838091790080939F
:10061000270181E0809325010CC0ECE7F0E08081A8
:10062000887F816080838091790080932601109279
:100630002501EAE7F0E080818064808381E0809397
:100640002201FF91EF918F910F900FBE0F901F909D
:1006500018951F920F920FB60F9211248F938091CD
:10066000C6008B3251F4809124018F3F89F0809134
:1006700024018F5F809324010BC08D3249F4809157
:100680002401882329F08091240181508093240142
:1006900081E0809323018F910F900FBE0F901F90E8
:1006A00018955058BB27AA270E9469030C94B304DD
:1006B0000E94A50438F00E94AC0420F039F49F3F5A
:1006C00019F426F40C94A2040EF4E095E7FB0C94C4
:1006D0009C04E92F0E94C40458F3BA1762077307F9
:1006E0008407950720F079F4A6F50C94E6040EF43F
:1006F000E0950B2EBA2FA02D0B01B90190010C0132
:10070000CA01A0011124FF27591B99F0593F50F449
:10071000503E68F11A16F040A22F232F342F4427A1
:10072000585FF3CF469537952795A795F040539599
:10073000C9F77EF41F16BA0B620B730B840BBAF069
:100740009150A1F0FF0FBB1F661F771F881FC2F7D4
:100750000EC0BA0F621F731F841F48F487957795E8
:100760006795B795F7959E3F08F0B0CF9395880FA2
:1007700008F09927EE0F9795879508950E94D20368
:100780000C94B3040E94AC0458F00E94A50440F0FD
:1007900029F45F3F29F00C949C0451110C94E70458
:1007A0000C94A2040E94C40468F39923B1F3552366
:1007B00091F3951B550BBB27AA2762177307840774
:1007C00038F09F5F5F4F220F331F441FAA1FA9F30A
:1007D00035D00E2E3AF0E0E832D091505040E695F8
:1007E000001CCAF72BD0FE2F29D0660F771F881F59
:1007F000BB1F261737074807AB07B0E809F0BB0B4C
:10080000802DBF01FF2793585F4F3AF09E3F51055F
:1008100078F00C949C040C94E7045F3FE4F3983E5A
:10082000D4F3869577956795B795F7959F5FC9F748
:10083000880F911D9695879597F90895E1E0660FC9
:10084000771F881FBB1F621773078407BA0720F042
:10085000621B730B840BBA0BEE1F88F7E0950895AB
:100860000E94CC0488F09F5798F0B92F9927B75170
:10087000B0F0E1F0660F771F881F991F1AF0BA9544
:10088000C9F714C0B13091F00E94E604B1E00895B8
:100890000C94E604672F782F8827B85F39F0B93FAA
:1008A000CCF3869577956795B395D9F73EF49095F7
:1008B0008095709561957F4F8F4F9F4F0895E89475
:1008C00009C097FB3EF490958095709561957F4F98
:1008D0008F4F9F4F9923A9F0F92F96E9BB27939546
:1008E000F695879577956795B795F111F8CFFAF456
:1008F000BB0F11F460FF1BC06F5F7F4F8F4F9F4F87
:1009000016C0882311F096E911C0772321F09EE8E4
:10091000872F762F05C0662371F096E8862F70E04A
:1009200060E02AF09A95660F771F881FDAF7880F24
:100930009695879597F9089597F99F6780E870E0F5
:1009400060E008959FEF80EC089500240A94161645
:10095000170618060906089500240A9412161306AD
:10096000140605060895092E0394000C11F488233B
:1009700052F0BB0F40F4BF2B11F460FF04C06F5F57
:100980007F4F8F4F9F4F089557FD9058440F551F2D
:1009900059F05F3F71F04795880F97FB991F61F001
:1009A0009F3F79F087950895121613061406551F78
:1009B000F2CF4695F1DF08C0161617061806991FE4
:1009C000F1CF86957105610508940895E894BB27D9
:1009D00066277727CB0197F908950E9400050C94AC
:1009E000B3040E94A50438F00E94AC0420F09523C3
:1009F00011F00C949C040C94A20411240C94E704B0
:100A00000E94C40470F3959FC1F3950F50E0551FE9
:100A1000629FF001729FBB27F00DB11D639FAA2753
:100A2000F00DB11DAA1F649F6627B00DA11D661FA2
:100A3000829F2227B00DA11D621F739FB00DA11DC3
:100A4000621F839FA00D611D221F749F3327A00D7D
:100A5000611D231F849F600D211D822F762F6A2F19
:100A600011249F5750409AF0F1F088234AF0EE0F7E
:100A7000FF1FBB1F661F771F881F91505040A9F7AB
:100A80009E3F510580F00C949C040C94E7045F3F5A
:100A9000E4F3983ED4F3869577956795B795F795E7
:100AA000E7959F5FC1F7FE2B880F911D969587955F
:100AB00097F9089597FB072E16F4009407D077FD59
:100AC00009D00E947D0507FC05D03EF490958195E4
:100AD0009F4F0895709561957F4F0895A29FB00133
:100AE000B39FC001A39F700D811D1124911DB29F62
:100AF000700D811D1124911D0895AA1BBB1B51E18E
:100B000007C0AA1FBB1FA617B70710F0A61BB70B7D
:100B1000881F991F5A95A9F780959095BC01CD0122
:060B20000895F894FFCFD8
:100B26003030303053313A0053323A0053333A00C2
:100B360053313A20002053323A20002053333A20D2
:020B46000000AD
:00000001FF
