S00E00004D61737465722E73726563AA
S11300000C9434000C9451000C9451000C94510045
S11300100C9451000C9451000C9451000C94510018
S11300200C9451000C9451000C9451000C94510008
S11300300C9451000C9451000C9451000C945100F8
S11300400C9451000C9451000C9451000C945100E8
S11300500C9451000C9451000C9451000C945100D8
S11300600C9451000C94510011241FBECFEFD8E022
S1130070DEBFCDBF11E0A0E0B1E0E4E2F4E102C0F4
S113008005900D92A831B107D9F721E0A8E1B1E0BC
S113009001C01D92AF33B207E1F70E941B030C9419
S11300A0100A0C940000CF93C82F9A01AB0187B1BA
S11300B08F7C87B960E074E284EF90E00E94F606DA
S11300C0CA01B90160517109810991092C2F30E0ED
S11300D0220F331F032E000C440B550B0E94F6060F
S11300E02093B800C43079F018F4C13031F023C043
S11300F0C03191F0C034C9F01EC0E9EBF0E080815A
S11301008C7F80831DC0E9EBF0E080818D7F80834C
S113011080818160808314C0E9EBF0E080818E7F70
S113012080838081826080830BC0E9EBF0E0808172
S11301308D6F808305C0E9EBF0E080818C7F808344
S113014084E08093BC00CF91089584E98093BC003F
S11301508091BC0084FDFCCF0895CF93DF9394EA93
S11301609093BC009091BC009923E4F79091B9005E
S1130170987F9830E1F590E0880F991F8160809313
S1130180BB0084E88093BC008091BC008823E4F722
S1130190EB018091B900887F883421F40E94A50086
S11301A081E026C08091B900887F803421F00E94CC
S11301B0A50081E01DC084E88093BC008091BC0050
S11301C08823E4F78091B900887F883549F08091CD
S11301D0B900887F803521F00E94A50081E008C025
S11301E08091BB0088830E94A500888101C081E0C2
S11301F0DF91CF91089580FF04C095B1906195B9C6
S113020003C095B19F7E95B981FF04C095B19460F8
S113021095B903C095B19B7F95B982FF04C09BB18A
S113022094609BB903C09BB19B7F9BB983FF04C0BF
S11302309BB198609BB903C09BB1977F9BB984FF26
S113024004C09BB190619BB903C09BB19F7E9BB9D5
S113025085FF04C09BB190629BB903C09BB19F7D95
S11302609BB986FF04C09BB190649BB903C09BB14A
S11302709F7B9BB9882324F48BB180688BB9089544
S11302808BB18F778BB9089595B19E7F95B90E94F4
S1130290FB0085B1886085B98FE99FE00197F1F78C
S11302A000C0000085B1877F85B98FE99FE0019781
S11302B0F1F700C00000089585B18E7F85B985B13E
S11302C08D7F85B92FEF89EF90E0215080409040D9
S11302D0E1F700C0000080E30E9444018FE19EE446
S11302E00197F1F700C0000080E30E9444018FE110
S11302F09EE40197F1F700C0000080E30E944401EE
S11303008FE39CE90197F1F700C0000088E30E94A5
S113031044018CE00E94440181E00E94440186E093
S11303200E944401089581E00E94440108958111CE
S113033005C080E8860F0E9444010895813021F4AD
S113034080EC860F0E944401089595B1916095B99F
S11303500E94FB0085B1886085B98FE99FE0019711
S1130360F1F700C0000085B1877F85B98FE99FE070
S11303700197F1F700C0000008950F931F93CF93E6
S1130380DF938C01C0E0D0E003C00E94A501219658
S1130390F801EC0FFD1F80818111F7CFDF91CF9120
S11303A01F910F9108951092B90088E48093B800CA
S11303B084E08093BC00089584EA8093BC0080911B
S11303C0BC008823E4F7089584E98093BC00089571
S11303D08093BB0084E88093BC008091BC00882398
S11303E0E4F7089584EC8093BC008091BC008823DA
S11303F0E4F78091BB00089584E88093BC00809169
S1130400BC008823E4F78091BB0008950E94DC01BE
S113041082E50E94E80181E80E94E8018BEE0E94D7
S1130420E8010E94E4010E94DC0182E50E94E801E7
S11304308FE80E94E80180E00E94E8010E94E40144
S113044008950E94DC0182E50E94E80180E80E9490
S1130450E80181E00E94E8010E94E4018FED9EE240
S11304600197F1F700C000000E94DC0182E50E94C0
S1130470E80180E80E94E80183E00E94E8010E940C
S1130480E4010E9406020895EF92FF920F931F93D6
S1130490CF93DF937C018B01EA010E94DC0182E5AA
S11304A00E94E80184E90E94E8010E94E4010E949C
S11304B0DC0183E50E94E8010E94F2010E94F2013E
S11304C00E94F20190E0F701918380830E94F2017F
S11304D090E0982F8827F70120813181822B932B7C
S11304E0918380830E94F20190E0F80191838083DC
S11304F00E94F20190E0982F8827F8012081318131
S1130500822B932B918380830E94F20190E0998344
S113051088830E94FC0190E0982F882728813981E4
S1130520822B932B998388830E94E401DF91CF91DE
S11305301F910F91FF90EF9008959093C5008093C1
S1130540C40088E08093C10086E08093C2000895CF
S1130550F8948FEF8AB984B987B18F6087B9109204
S1130560C1000E945C010E94930140E45DE063E0ED
S113057070E084E00E9453000E94D30187E690E07B
S11305800E949D020E9421024FE35CE968E070E052
S113059080E00E945B044FE35CE968E070E080E087
S11305A00E94880410923C0110923D0110921A019D
S11305B0789408959091C00095FFFCCF8093C60075
S11305C008959C0198B1907F98B9253883E0380745
S11305D078F0603283E0780758F4403283E05807BB
S11305E038F482E30E94B50481E30E94DA0208959C
S11305F06D3484E0780778F0203B84E0380758F4C1
S1130600403B84E0580738F482E80E94B50482E352
S11306100E94DA0208954935524060F02A38324087
S113062048F46A38724030F48FEF0E94B50483E3D3
S11306300E94DA020895CF93DF9300D000D000D057
S1130640CDB7DEB70E94A8028FE39CE90197F1F7CA
S113065000C0000060E080E00E94970180E091E02B
S11306600E94BD0166E080E00E94970186E091E06F
S11306700E94BD016CE080E00E9497018CE091E053
S11306800E94BD0169E171E088E00E94AD008091A3
S11306901901811107C089E30E94DA0288B18460DC
S11306A088B903C088B18B7F88B968E171E080E2C2
S11306B00E94AD00809118018A3091F480913D012F
S11306C08F5F80933D0184E30E94DA029FEF27EA63
S11306D081E6915020408040E1F700C0000027C02F
S11306E0883091F480913C018F5F80933C0186E3D4
S11306F00E94DA029FEF27EA81E691502040804071
S1130700E1F700C0000013C0863089F480911A011B
S11307108F5F80931A0188E30E94DA029FEF27EA31
S113072081E6915020408040E1F700C000008091B4
S11307303D011F928F930F2EF2E1EF2EF1E0FF2E79
S1130740F02DFF92EF921F926894DD24D5F8DF928A
S11307500CE111E01F930F930E94180760E081E001
S11307600E949701C8010E94BD0180913C011F9223
S11307708F93FF92EF921F92DF921F930F930E9429
S1130780180766E081E00E949701C8010E94BD013C
S113079080911A011F928F93FF92EF921F92DF9222
S11307A01F930F930E9418076CE081E00E94970149
S11307B0C8010E94BD01AE014B5F5F4FBE016D5F7A
S11307C07F4FCE0101960E9444024D815E816B8170
S11307D07C8189819A810E94E1029FEF2BE782E963
S11307E0915020408040E1F700C000000FB6F8941B
S11307F0DEBF0FBECDBF28CF4F925F926F927F9224
S1130800AF92BF92CF92DF92EF92FF920F931F931A
S1130810CF93DF93CDB7DEB728970FB6F894DEBF3A
S11308200FBECDBF29013A01ED82FE820F831887E6
S11308300E94ED0469837A838B839C83A6019501CE
S1130840698D7A8D8B8D9C8D0E94ED049B01AC018A
S113085069817A818B819C810E94890669837A836C
S11308608B839C83A3019201C801B7010E94ED040C
S11308709B01AC0169817A818B819C810E945A051C
S11308809B01AC01C601B5010E94EE0428960FB687
S1130890F894DEBF0FBECDBFDF91CF911F910F91B2
S11308A0FF90EF90DF90CF90BF90AF907F906F90CC
S11308B05F904F90089594B1926094B9E0E8F0E0AD
S11308C0908192609083E1E8F0E090819861908358
S11308D05093870040938600882331F0E0E8F0E0ED
S11308E08081806C808305C0E0E8F0E080818068CE
S11308F080836830710531F4E1E8F0E08081826042
S113090080830895E1E8F0E0808184608083089525
S113091094B1946094B9E0E8F0E09081926090839F
S1130920E1E8F0E0908198619083509387004093D0
S11309308600882331F0E0E8F0E0808180638083E2
S113094005C0E0E8F0E08081806280836830710552
S113095031F4E1E8F0E08081826080830895E1E889
S1130960F0E08081846080830895AF92BF92CF923B
S1130970DF92EF92FF920F931F93682F70E080E055
S113098090E00E94FB0525E42F9326E92F931F9204
S11309901F920F2EA12CB12CF1E6CF2EF4E4DF2E02
S11309A0F02DE12CF12C0FE713E420E030E0A90155
S11309B00E94FC030F900F900F900F900E94CC05A3
S11309C070938900609388001F910F91FF90EF90BE
S11309D0DF90CF90BF90AF9008955058BB27AA27BF
S11309E00E9405050C944F060E94410638F00E94AF
S11309F0480620F039F49F3F19F426F40C943E067F
S1130A000EF4E095E7FB0C943806E92F0E9460068B
S1130A1058F3BA17620773078407950720F079F42F
S1130A20A6F50C9482060EF4E0950B2EBA2FA02D99
S1130A300B01B90190010C01CA01A0011124FF2787
S1130A40591B99F0593F50F4503E68F11A16F04082
S1130A50A22F232F342F4427585FF3CF4695379581
S1130A602795A795F0405395C9F77EF41F16BA0B46
S1130A70620B730B840BBAF09150A1F0FF0FBB1FF4
S1130A80661F771F881FC2F70EC0BA0F621F731F3D
S1130A90841F48F4879577956795B795F7959E3F9A
S1130AA008F0B0CF9395880F08F09927EE0F97952B
S1130AB0879508950E946E050C944F060E9448067F
S1130AC058F00E94410640F029F45F3F29F00C944D
S1130AD0380651110C9483060C943E060E9460065D
S1130AE068F39923B1F3552391F3951B550BBB2759
S1130AF0AA2762177307840738F09F5F5F4F220F9E
S1130B00331F441FAA1FA9F335D00E2E3AF0E0E894
S1130B1032D091505040E695001CCAF72BD0FE2FDE
S1130B2029D0660F771F881FBB1F26173707480772
S1130B30AB07B0E809F0BB0B802DBF01FF2793582A
S1130B405F4F3AF09E3F510578F00C9438060C94B0
S1130B5083065F3FE4F3983ED4F3869577956795D3
S1130B60B795F7959F5FC9F7880F911D969587955F
S1130B7097F90895E1E0660F771F881FBB1F62177E
S1130B8073078407BA0720F0621B730B840BBA0B3C
S1130B90EE1F88F7E09508950E94680688F09F5735
S1130BA098F0B92F9927B751B0F0E1F0660F771F8D
S1130BB0881F991F1AF0BA95C9F714C0B13091F083
S1130BC00E948206B1E008950C948206672F782F64
S1130BD08827B85F39F0B93FCCF386957795679548
S1130BE0B395D9F73EF490958095709561957F4FB4
S1130BF08F4F9F4F0895E89409C097FB3EF490955A
S1130C008095709561957F4F8F4F9F4F9923A9F0E1
S1130C10F92F96E9BB279395F69587957795679570
S1130C20B795F111F8CFFAF4BB0F11F460FF1BC0B4
S1130C306F5F7F4F8F4F9F4F16C0882311F096E947
S1130C4011C0772321F09EE8872F762F05C06623F5
S1130C5071F096E8862F70E060E02AF09A95660FAE
S1130C60771F881FDAF7880F9695879597F9089567
S1130C7097F99F6780E870E060E008959FEF80EC4B
S1130C80089500240A9416161706180609060895EE
S1130C9000240A9412161306140605060895092E54
S1130CA00394000C11F4882352F0BB0F40F4BF2BC3
S1130CB011F460FF04C06F5F7F4F8F4F9F4F089503
S1130CC057FD9058440F551F59F05F3F71F04795F9
S1130CD0880F97FB991F61F09F3F79F087950895DE
S1130CE0121613061406551FF2CF4695F1DF08C0FD
S1130CF0161617061806991FF1CF8695710561051A
S1130D0008940895E894BB2766277727CB0197F9C1
S1130D1008950E949C060C944F060E94410638F0E8
S1130D200E94480620F0952311F00C9438060C9488
S1130D303E0611240C9483060E94600670F3959F6E
S1130D40C1F3950F50E0551F629FF001729FBB27BE
S1130D50F00DB11D639FAA27F00DB11DAA1F649F5A
S1130D606627B00DA11D661F829F2227B00DA11D0D
S1130D70621F739FB00DA11D621F839FA00D611D93
S1130D80221F749F3327A00D611D231F849F600DB4
S1130D90211D822F762F6A2F11249F5750409AF0DD
S1130DA0F1F088234AF0EE0FFF1FBB1F661F771F69
S1130DB0881F91505040A9F79E3F510580F00C9434
S1130DC038060C9483065F3FE4F3983ED4F386958B
S1130DD077956795B795F795E7959F5FC1F7FE2BD4
S1130DE0880F911D9695879597F90895A1E21A2E7B
S1130DF0AA1BBB1BFD010DC0AA1FBB1FEE1FFF1FBB
S1130E00A217B307E407F50720F0A21BB30BE40B0A
S1130E10F50B661F771F881F991F1A9469F7609551
S1130E207095809590959B01AC01BD01CF0108950B
S1130E30AEE0B0E0EEE1F7E00C94E7090D891E891D
S1130E408F89988D26E02C831A83098397FF02C02B
S1130E5080E090E801979E838D83AE01455E5F4FED
S1130E60698D7A8DCE0101960E9448074D815E817D
S1130E7057FD0AC02F813885421753070CF49A0195
S1130E80F801E20FF31F10822E96E4E00C94030A9B
S1130E90ABE0B0E0EEE4F7E00C94D9096C017B011F
S1130EA08A01FC0117821682838181FFCCC1CE01A5
S1130EB001963C01F6019381F70193FD859193FF1F
S1130EC081917F01882309F4BAC1853239F493FDF5
S1130ED0859193FF81917F01853229F4B60190E0D9
S1130EE00E943F09E7CF912C212C312CFFE1F3150F
S1130EF0D8F08B3279F038F4803279F08332A1F46F
S1130F00232D20611DC08D3261F0803369F4232DBF
S1130F10216016C0832D8260382EE32DE4603E2EBE
S1130F202AC0F32DF8601DC037FC2DC020ED280F1A
S1130F302A3040F08E32B9F436FC81C1232D20646E
S1130F40322E19C036FE06C08AE0989E200D112468
S1130F50922E11C0EAE02E9E200D1124222EF32D94
S1130F60F0623F2E08C08C3621F4832D8068382E21
S1130F7002C0883641F4F70193FD859193FF819176
S1130F807F018111B3CF982F9F7D9554933028F41E
S1130F900C5F1F4F9FE399830DC0833631F0833775
S1130FA071F0833509F059C021C0F801808189832B
S1130FB00E5F1F4F88248394912C530113C0280182
S1130FC0F2E04F0E511CF801A080B18036FE03C040
S1130FD0692D70E002C06FEF7FEFC5010E943409F4
S1130FE04C018201F32DFF773F2E16C0280122E029
S1130FF0420E511CF801A080B18036FE03C0692D59
S113100070E002C06FEF7FEFC5010E9429094C0117
S1131010F32DF0683F2E820133FC1BC0822D90E03B
S113102088169906B0F4B60180E290E00E943F0968
S11310302A94F4CFF50137FC859137FE81915F0145
S1131040B60190E00E943F0921102A9421E0821AFF
S113105091088114910471F7E8C0843611F089363F
S113106041F5F80137FE07C0608171818281938167
S11310700C5F1F4F08C060817181072E000C880B24
S1131080990B0E5F1F4FF32DFF763F2E97FF09C07C
S113109090958095709561957F4F8F4F9F4FF06825
S11310A03F2E2AE030E0A3010E947B09882E861897
S11310B045C0853731F4232D2F7EB22E2AE030E04F
S11310C025C0932D997FB92E8F36C1F018F4883539
S11310D079F0B5C0803719F0883721F0B0C0E92F16
S11310E0E061BE2EB4FE0DC0FB2DF460BF2E09C01E
S11310F034FE0AC0292F2660B22E06C028E030E054
S113110005C020E130E002C020E132E0F801B7FE82
S113111007C060817181828193810C5F1F4F06C07B
S11311206081718180E090E00E5F1F4FA3010E94F7
S11311307B09882E8618FB2DFF773F2E36FE0DC0C7
S1131140232D2E7FA22E891458F434FE0BC032FCBA
S113115009C0832D8E7EA82E05C0B82CA32C03C0F5
S1131160B82C01C0B92CA4FE0FC0FE01E80DF11D7E
S11311708081803321F49A2D997EA92E09C0A2FE84
S113118006C0B394B39404C08A2D867809F0B3944E
S1131190A3FC11C0A0FE06C0B21488F4280C922C43
S11311A09B180EC0B21460F4B60180E290E00E9475
S11311B03F09B394F7CFB21418F42B1802C0982C3B
S11311C0212CA4FE10C0B60180E390E00E943F09E8
S11311D0A2FE17C0A1FC03C088E790E002C088E526
S11311E090E0B6010CC08A2D867859F0A1FE02C0A9
S11311F08BE201C080E2A7FC8DE2B60190E00E9480
S11312003F09891438F4B60180E390E00E943F0955
S11312109A94F7CF8A94F301E80DF11D8081B60109
S113122090E00E943F098110F5CF222009F442CEBC
S1131230B60180E290E00E943F092A94F6CFF601BD
S11312408681978102C08FEF9FEF2B96E2E10C9489
S1131250F509FC010590615070400110D8F78095A4
S113126090958E0F9F1F0895FC016150704001906E
S11312700110D8F7809590958E0F9F1F08950F93B6
S11312801F93CF93DF93FB01238121FD03C08FEFD5
S11312909FEF2CC022FF16C04681578124813581DF
S11312A04217530744F4A081B1819D012F5F3F4F42
S11312B0318320838C93268137812F5F3F4F37837F
S11312C0268314C08B01EC01FB010084F185E02D21
S11312D00995892BE1F6D80116968D919C91179763
S11312E0019617969C938E931697CE01DF91CF911A
S11312F01F910F910895FA01AA27283051F1203146
S113130081F1E8946F936E7F6E5F7F4F8F4F9F4F95
S1131310AF4FB1E03ED0B4E03CD0670F781F891FD7
S11313209A1FA11D680F791F8A1F911DA11D6A0FA5
S1131330711D811D911DA11D20D009F468943F9158
S11313402AE0269F11243019305D3193DEF6CF0157
S11313500895462F4770405D4193B3E00FD0C9F71D
S1131360F6CF462F4F70405D4A3318F0495D31FD8A
S11313704052419302D0A9F7EACFB4E0A6959795DD
S1131380879577956795BA95C9F7009761057105B3
S113139008959B01AC010A2E0694579547953795FD
S11313A02795BA95C9F7620F731F841F951FA01D57
S11313B008952F923F924F925F926F927F928F92F5
S11313C09F92AF92BF92CF92DF92EF92FF920F93D0
S11313D01F93CF93DF93CDB7DEB7CA1BDB0B0FB6DA
S11313E0F894DEBF0FBECDBF09942A883988488897
S11313F05F846E847D848C849B84AA84B984C8842D
S1131400DF80EE80FD800C811B81AA81B981CE0F23
S1131410D11D0FB6F894DEBF0FBECDBFED01089508
S1071420F894FFCF6A
S11314245065713A20004D65643A20004772613A70
S10B14342000253033640000A0
S9030000FC
