:100000000C9434000C9446000C9446000C945E0052
:100010000C9446000C9446000C9446000C94460048
:100020000C9446000C9446000C9446000C94460038
:100030000C9446000C9446000C9446000C94460028
:100040000C9446000C9446000C9446000C94460018
:100050000C9446000C9446000C9446000C94460008
:100060000C9446000C94460011241FBECFEFD8E03C
:10007000DEBFCDBF21E0A0E0B1E001C01D92A23003
:10008000B207E1F70E94D8000C94DD000C94000048
:1000900084EA8093BC008091BC008823E4F7089533
:1000A00084E98093BC0008958093BB0084E880932A
:1000B000BC008091BC008823E4F708951F920F9242
:1000C0000FB60F9211248F939F93189919C08091A6
:1000D000000190910101019690930101809300012C
:1000E0008091000190910101409724F0109201014C
:1000F0001092000180910001909101018BB91CC008
:1001000019991AC080910001909101010197909373
:1001100001018093000180910001909101019923D8
:1001200034F48FE090E0909301018093000180917E
:100130000001909101018BB99F918F910F900FBE9B
:100140000F901F9018950E94480084E40E9454006C
:1001500080910001909101010E9454000E94500082
:10016000089597B19F7C97B9880F81608093BA00FA
:1001700085E48093BC000895F8948CEF84B983E003
:1001800085B98FEF8AB91BB8E8E6F0E0808181601D
:100190008083ABE6B0E08C9183608C93808181603A
:1001A00080831092C10082E20E94B1007894089589
:0E01B0000E94BC000E94A300FDCFF894FFCF78
:00000001FF
