:100000000C9434000C9446000C9446000C9446006A
:100010000C9446000C9446000C9446000C94460048
:100020000C9446000C9446000C9446000C94460038
:100030000C9446000C9446000C9446000C94460028
:100040000C9446000C9446000C9446000C94460018
:100050000C9446000C94B1000C9446000C9446009D
:100060000C94DB000C94460011241FBECFEFD8E0A7
:10007000DEBFCDBF21E0A0E0B1E001C01D92A13004
:10008000B207E1F70E94A4000C9408010C94000050
:10009000ECE7F0E090819064908390819F7790836B
:1000A00090819F7D9083EAE7F0E09081986890834B
:1000B000823021F48081816080830895843031F41E
:1000C000EAE7F0E08081826080830895883031F42F
:1000D000EAE7F0E08081836080830895803131F425
:1000E000EAE7F0E08081846080830895803231F413
:1000F000EAE7F0E08081856080830895803831F4FC
:10010000EAE7F0E08081876080830895EAE7F0E025
:100110008081876080830895ECE7F0E08081807FB4
:1001200080830895EAE7F0E0808180648083089509
:1001300097B19F7C97B990E0880F991F8093BA0080
:1001400085E48093BC000895F89480E80E944800FC
:100150000E948C000E94920080E20E949800789495
:10016000FFCF1F920F920FB60F9211242F933F9340
:100170004F935F936F937F938F939F93AF93BF93AF
:10018000EF93FF9380917800909179008093000124
:100190000E949200FF91EF91BF91AF919F918F913B
:1001A0007F916F915F914F913F912F910F900FBE73
:1001B0000F901F9018951F920F920FB60F92112457
:1001C0008F938091B900887F803AA9F018F4803825
:1001D00031F015C0883A39F0883B29F010C085EC21
:1001E0008093BC000FC0809100018093BB0085EC20
:1001F0008093BC0007C085EC8093BC0003C085E8F9
:100200008093BC008F910F900FBE0F901F90189598
:04021000F894FFCF90
:00000001FF
