S01600004C6162365F554152545F4E616E6F2E7372656343
S11300000C9434000C943E000C943E000C9481003B
S11300100C943E000C94BE000C943E000C943E00E4
S11300200C943E000C943E000C943E000C943E0054
S11300300C943E000C943E000C943E000C943E0044
S11300400C943E000C943E000C943E000C943E0034
S11300500C943E000C943E000C943E000C943E0024
S11300600C943E000C943E0011241FBECFEFD8E048
S1130070DEBFCDBF0E9467000C94E7000C94000023
S113008084B1807E84B985B18F6185B98AB18F7757
S11300908AB98BB180688BB9E8E6F0E0808185602D
S11300A08083EBE6F0E080818F618083EDE6F0E011
S11300B080818068808308959093C5008093C400F4
S11300C088E08093C10086E08093C2000895F8948C
S11300D00E94400087E690E00E945C007894FFCF85
S11300E09091C00095FFFCCF8093C60008952FEF38
S11300F080E792E0215080409040E1F700C000008A
S113010008951F920F920FB60F9211242F933F93CD
S11301104F935F936F937F938F939F93AF93BF930B
S1130120EF93FF930E947700189903C085E50E941E
S11301307000199903C084E40E9470001A9903C0E6
S11301408CE40E9470001B9903C082E50E94700039
S11301501C9903C081E40E947000FF91EF91BF914C
S1130160AF919F918F917F916F915F914F913F914B
S11301702F910F900FBE0F901F9018951F920F9202
S11301800FB60F9211242F933F934F935F936F9366
S11301907F938F939F93AF93BF93EF93FF930E94AB
S11301A077004F9903C082E40E947000FF91EF91A1
S11301B0BF91AF919F918F917F916F915F914F917B
S11301C03F912F910F900FBE0F901F901895F894A8
S10501D0FFCF5B
S9030000FC
