S01400004C6162345F4D61657374726F2E7372656393
S11300000C9434000C9451000C9451000C94510045
S11300100C9451000C9451000C9451000C94510018
S11300200C9451000C9451000C9451000C94510008
S11300300C9451000C9451000C9451000C945100F8
S11300400C9451000C9451000C9451000C945100E8
S11300500C9451000C9451000C9451000C945100D8
S11300600C9451000C94510011241FBECFEFD8E022
S1130070DEBFCDBF11E0A0E0B1E0E2ECFAE002C0E7
S113008005900D92AE30B107D9F721E0AEE0B1E0B2
S113009001C01D92A031B207E1F70E9414020C9432
S11300A05F050C9400000F931F93CF938B019C0169
S11300B0C42F87B18F7C87B9443079F018F441306C
S11300C031F023C0403191F04034C9F01EC0E9EB57
S11300D0F0E080818C7F80831EC0E9EBF0E08081BA
S11300E08D7F808380818160808315C0E9EBF0E09F
S11300F080818E7F80838081826080830CC0E9EB65
S1130100F0E080818360808306C0E9EBF0E08081C9
S11301108C7F8083C1E060E074E284EF90E0A90109
S113012098010E945302CA01B90160517109810901
S113013091094C2F50E09A01220F331F032E000C1B
S1130140440B550B0E9453022093B800ECEBF0E0F3
S1130150808184608083CF911F910F91089584EAF8
S11301608093BC008091BC008823E4F78091B9009F
S113017081E0089584E98093BC008091BC0084FDF3
S1130180FCCF08958093BB0084E88093BC008091E9
S1130190BC008823E4F78091B900887F883131F06E
S11301A0883231F0803429F481E0089581E00895A3
S11301B081E0089584EC8093BC008091BC00882386
S11301C0E4F78091BB00089580FF04C09BB1906167
S11301D09BB903C09BB19F7E9BB981FF04C09BB1B7
S11301E090629BB903C09BB19F7D9BB982FF04C001
S11301F09BB190649BB903C09BB19F7B9BB983FF68
S113020004C08BB180688BB908958BB18F778BB99B
S1130210089598B19E7F98B90E94E40088B18260E5
S113022088B98FE79EE30197F1F700C0000088B119
S11302308D7F88B908958AB1806F8AB987B1836048
S113024087B91BB880E00E94E4002FEF89EF90E0AB
S1130250215080409040E1F700C0000083E00E94FC
S113026009018FE19EE40197F1F700C0000083E0EB
S11302700E9409018FED9BEA0197F1F700C000008D
S113028083E00E94090182E00E94090182E00E9449
S1130290090188E00E94090180E00E9409018CE0C4
S11302A00E94090180E00E94090186E00E94090180
S11302B080E00E94090181E00E9409010895CF9322
S11302C0C82FCF7091E098B982958F700E94E40096
S11302D088B1826088B98FE79EE30197F1F700C087
S11302E0000088B18D7F88B98C2F0E94E40088B10A
S11302F0826088B98FE79EE30197F1F700C00000A0
S113030088B18D7F88B9CF9108950F931F93CF93B0
S1130310DF938C01C0E0D0E003C00E945F0121960E
S1130320F801EC0FFD1F80818111F7CFDF91CF9190
S11303301F910F910895CF93613059F48158C82FBC
S1130340CF7082958F700E9409018C2F0E94090141
S11303500CC0623051F48154C82FCF7082958F70D5
S11303600E9409018C2F0E940901CF910895DF9208
S1130370EF92FF920F931F93CF93DF93CDB7DEB726
S11303802A970FB6F894DEBF0FBECDBF182FD62E16
S113039081E00E94090161E082E00E949B0180E00B
S11303A091E00E94850161E08AE00E949B0184E063
S11303B091E00E9485011F921F9308E011E01F93B2
S11303C00F93CE0101967C019F938F930E94750237
S11303D01F92DF921F930F938E010A5F1F4F1F938B
S11303E00F930E94750262E082E00E949B01C701A4
S11303F00E94850162E08AE00E949B01C8010E947C
S113040085010FB6F894DEBF0FBECDBF2A960FB696
S1130410F894DEBF0FBECDBFDF91CF911F910F9136
S1130420FF90EF90DF90089541E060EA76E881E084
S113043090E00E9453000E941B0161E084E00E944E
S11304409B0180E091E00E94850161E08BE00E94C5
S11304509B0184E091E00E9485010E94AF0081E24B
S11304600E94C2000E94DA0080930F010E94BA0029
S11304700E94AF0083E20E94C2000E94DA008093CF
S11304800E010E94BA0060910E0180910F010E943A
S1130490B7012FEF89E698E1215080409040E1F7C1
S11304A000C00000DACFA1E21A2EAA1BBB1BFD017B
S11304B00DC0AA1FBB1FEE1FFF1FA217B307E4073F
S11304C0F50720F0A21BB30BE40BF50B661F771F97
S11304D0881F991F1A9469F7609570958095909577
S11304E09B01AC01BD01CF010895AEE0B0E0EBE7A4
S11304F0F2E00C9436050D891E8986E08C831A83FC
S113050009838FEF9FE79E838D83AE01475E5F4F24
S11305106F89788DCE0101960E949702EF81F8854C
S1130520E00FF11F10822E96E4E00C945205ABE02C
S1130530B0E0EDE9F2E00C9428056C017B018A013E
S1130540FC0117821682838181FFCCC1CE01019602
S11305503C01F6019381F70193FD859193FF81910D
S11305607F01882309F4BAC1853239F493FD85915A
S113057093FF81917F01853229F4B60190E00E94B6
S11305808E04E7CF912C212C312CFFE1F315D8F008
S11305908B3279F038F4803279F08332A1F4232D50
S11305A020611DC08D3261F0803369F4232D2160F8
S11305B016C0832D8260382EE32DE4603E2E2AC0BF
S11305C0F32DF8601DC037FC2DC020ED280F2A3014
S11305D040F08E32B9F436FC81C1232D2064322ED2
S11305E019C036FE06C08AE0989E200D1124922E72
S11305F011C0EAE02E9E200D1124222EF32DF0626C
S11306003F2E08C08C3621F4832D8068382E02C01A
S1130610883641F4F70193FD859193FF81917F0121
S11306208111B3CF982F9F7D9554933028F40C5F9C
S11306301F4F9FE399830DC0833631F0833771F0E8
S1130640833509F059C021C0F801808189830E5F88
S11306501F4F88248394912C530113C02801F2E086
S11306604F0E511CF801A080B18036FE03C0692DE5
S113067070E002C06FEF7FEFC5010E9483044C015C
S11306808201F32DFF773F2E16C0280122E0420E8F
S1130690511CF801A080B18036FE03C0692D70E0C2
S11306A002C06FEF7FEFC5010E9478044C01F32D67
S11306B0F0683F2E820133FC1BC0822D90E0881627
S11306C09906B0F4B60180E290E00E948E042A9468
S11306D0F4CFF50137FC859137FE81915F01B601B6
S11306E090E00E948E0421102A9421E0821A91083D
S11306F08114910471F7E8C0843611F0893641F50C
S1130700F80137FE07C060817181828193810C5F9B
S11307101F4F08C060817181072E000C880B990B54
S11307200E5F1F4FF32DFF763F2E97FF09C0909564
S11307308095709561957F4F8F4F9F4FF0683F2E46
S11307402AE030E0A3010E94CA04882E861845C01E
S1130750853731F4232D2F7EB22E2AE030E025C0D8
S1130760932D997FB92E8F36C1F018F4883579F01E
S1130770B5C0803719F0883721F0B0C0E92FE061A7
S1130780BE2EB4FE0DC0FB2DF460BF2E09C034FE96
S11307900AC0292F2660B22E06C028E030E005C02A
S11307A020E130E002C020E132E0F801B7FE07C0EA
S11307B060817181828193810C5F1F4F06C06081CB
S11307C0718180E090E00E5F1F4FA3010E94CA0474
S11307D0882E8618FB2DFF773F2E36FE0DC0232D65
S11307E02E7FA22E891458F434FE0BC032FC09C0AB
S11307F0832D8E7EA82E05C0B82CA32C03C0B82C44
S113080001C0B92CA4FE0FC0FE01E80DF11D8081CA
S1130810803321F49A2D997EA92E09C0A2FE06C028
S1130820B394B39404C08A2D867809F0B394A3FCDE
S113083011C0A0FE06C0B21488F4280C922C9B1898
S11308400EC0B21460F4B60180E290E00E948E04FF
S1130850B394F7CFB21418F42B1802C0982C212C9F
S1130860A4FE10C0B60180E390E00E948E04A2FEB4
S113087017C0A1FC03C088E790E002C088E590E0BF
S1130880B6010CC08A2D867859F0A1FE02C08BE215
S113089001C080E2A7FC8DE2B60190E00E948E04C4
S11308A0891438F4B60180E390E00E948E049A948F
S11308B0F7CF8A94F301E80DF11D8081B60190E031
S11308C00E948E048110F5CF222009F442CEB60195
S11308D080E290E00E948E042A94F6CFF60186818D
S11308E0978102C08FEF9FEF2B96E2E10C944405B1
S11308F0FC010590615070400110D8F780959095E7
S11309008E0F9F1F0895FC016150704001900110EB
S1130910D8F7809590958E0F9F1F08950F931F937E
S1130920CF93DF93FB01238121FD03C08FEF9FEF62
S11309302CC022FF16C0468157812481358142177D
S1130940530744F4A081B1819D012F5F3F4F318350
S113095020838C93268137812F5F3F4F37832683F3
S113096014C08B01EC01FB010084F185E02D099595
S1130970892BE1F6D80116968D919C9117970196D3
S113098017969C938E931697CE01DF91CF911F916A
S11309900F910895FA01AA27283051F1203181F1ED
S11309A0E8946F936E7F6E5F7F4F8F4F9F4FAF4F73
S11309B0B1E03ED0B4E03CD0670F781F891F9A1F86
S11309C0A11D680F791F8A1F911DA11D6A0F711D3A
S11309D0811D911DA11D20D009F468943F912AE046
S11309E0269F11243019305D3193DEF6CF0108952E
S11309F0462F4770405D4193B3E00FD0C9F7F6CF5F
S1130A00462F4F70405D4A3318F0495D31FD405226
S1130A10419302D0A9F7EACFB4E0A69597958795BC
S1130A2077956795BA95C9F700976105710508959B
S1130A309B01AC010A2E0694579547953795279547
S1130A40BA95C9F7620F731F841F951FA01D0895DF
S1130A502F923F924F925F926F927F928F929F92CA
S1130A60AF92BF92CF92DF92EF92FF920F931F93B8
S1130A70CF93DF93CDB7DEB7CA1BDB0B0FB6F89469
S1130A80DEBF0FBECDBF09942A88398848885F84A9
S1130A906E847D848C849B84AA84B984C884DF801A
S1130AA0EE80FD800C811B81AA81B981CE0FD11DFE
S1130AB00FB6F894DEBF0FBECDBFED010895F894D4
S1050AC0FFCF62
S1110AC253313A0053323A00253033640000B9
S9030000FC
